:1000000014C024C022C021C035C01FC01EC01DC0E6
:100010001CC01BC01AC019C018C017C016C015C01C
:1000200014C013C012C011C010C011241FBECFE5F0
:10003000D1E0DEBFCDBF20E0A0E6B0E001C01D9260
:10004000A836B207E1F7FFD012C1DACF1F920F92A4
:100050000FB60F9211248F939F9381E090E09093BD
:100060006500809364009F918F910F900FBE0F9059
:100070001F9018951F920F920FB60F9211248F9315
:100080009F9380916200909163000196909363002A
:10009000809362009F918F910F900FBE0F901F90E1
:1000A000189587B38F6087BB88B388BB0895789411
:1000B0008BB780648BBF85B7836085BF8EB5886042
:1000C0008EBD80ED93E09BBD8ABD8EB585608EBDF3
:1000D00089B7806489BF0895809166009091670018
:1000E0008230910509F44EC028F4009769F0019719
:1000F00079F1A6C08430910509F471C008F456C0A6
:10010000059709F487C09CC088B3896088BB80913B
:10011000640090916500892B09F494C0809162007D
:1001200090916300863991050CF48CC088B3807F70
:1001300088BB109263001092620081E090E090937F
:100140006700809366001092650010926400089525
:10015000C39A8091620080FD04C098B381E0892732
:1001600088BB8091620090916300429709F06AC059
:1001700088B3807F88BB109263001092620082E097
:1001800090E028C088B38A6088BB8091620090911B
:1001900063000F9709F056C088B3807F88BB109228
:1001A00063001092620083E090E014C088B3866020
:1001B00088BB80916200909163008639910509F0B7
:1001C00041C088B3807F88BB1092630010926200A8
:1001D00084E090E090936700809366000895C19A50
:1001E0008091620080FD04C098B384E0892788BBB9
:1001F0008091620090916300429721F588B3807FDF
:1002000088BB1092630010926200109267001092F7
:100210006600089588B3896088BB809162009091E0
:1002200063000F9769F488B3807F88BB10926300E6
:100230001092620083E090E09093670080936600E4
:1002400088B388BB08952DDF32DF109267001092CB
:100250006600109265001092640010926300109284
:100260006200109261001092600036DFFECFF894B9
:02027000FFCFBE
:00000001FF
