:100000000C944D010C9475010C9475010C947501C0
:100010000C9475010C9475010C9475010C94750188
:100020000C9475010C9475010C9475010C94750178
:100030000C9475010C9475010C9475010C94750168
:100040000C9475050C9475010C94E5050C94BF0592
:100050000C9475010C9475010C9475010C94750148
:100060000C9475010C947501000000000000005F05
:1000700000000007000700147F147F14242A7F2A41
:10008000122313086462364955225000050300000C
:10009000001C2241000041221C0014083E081408E4
:1000A000083E0808005030000008080808080060F2
:1000B00060000020100804023E5149453E00427F86
:1000C000400042615149462141454B311814127F8D
:1000D0001027454545393C4A494930017109050316
:1000E0003649494936064949291E0036360000007E
:1000F0005636000008142241001414141414004150
:100100002214080201510906324979413E7E11113B
:10011000117E7F494949363E414141227F4141227A
:100120001C7F494949417F090909013E4149497AF2
:100130007F0808087F00417F41002040413F017F48
:10014000081422417F404040407F020C027F7F0420
:1001500008107F3E4141413E7F090909063E415159
:10016000215E7F09192946464949493101017F012C
:10017000013F4040403F1F2040201F3F4038403F4C
:100180006314081463070870080761514945430068
:100190007F41410002040810200041417F00040219
:1001A0000102044040404040000102040020545439
:1001B00054787F48444438384444442038444448C0
:1001C0007F3854545418087E0901020C5252523E92
:1001D0007F0804047800447D40002040443D007FB7
:1001E0001028440000417F40007C041804787C08FB
:1001F00004047838444444387C1414140808141453
:10020000187C7C080404084854545420043F44409B
:10021000203C4040207C1C2040201C3C4030403C86
:1002200044281028440C5050503C4464544C440022
:100230000836410000007F00000041360800100829
:100240000810080000000000000000080002010083
:100250000003040700000000000000000000000090
:10026000250028002B0000000000240027002A00A1
:10027000040404040404040402020202020203034C
:100280000303030301020408102040800102040854
:100290001020010204081020170611241FBECFEF02
:1002A000D8E0DEBFCDBF11E0A0E0B1E0E4E1F6E1CF
:1002B00002C005900D92A836B107D9F722E0A8E652
:1002C000B1E001C01D92AD36B207E1F711E0CDE417
:1002D000D1E004C02197FE010E94020BCC34D1076B
:1002E000C9F70E9457060C94080B0C94000090E08C
:1002F000FC01EC57FD4F249180599D4FFC018491E6
:10030000882399F090E0880F991FFC01EA59FD4F6E
:10031000A591B491FC01E45AFD4F859194918FB75A
:10032000F894EC91E22BEC938FBF0895FC01538D70
:10033000448D252F30E0842F90E0821B930B5417BF
:1003400010F0CF96089501970895FC01918D828D4C
:10035000981761F0A28DAE0FBF2FB11D5D968C91E5
:10036000928D9F5F9F73928F90E008958FEF9FEF24
:100370000895FC01918D828D981731F0828DE80FE0
:10038000F11D858D90E008958FEF9FEF0895FC019A
:10039000918D228D892F90E0805C9F4F821B910967
:1003A0008F7399270895FC01A48DA80FB92FB11D53
:1003B000A35ABF4F2C91848D90E001968F7399279B
:1003C000848FA689B7892C93A089B1898C91837079
:1003D00080648C93938D848D981306C00288F38972
:1003E000E02D80818F7D80830895EF92FF920F939F
:1003F0001F93CF93DF93EC0181E0888F9B8D8C8DD1
:1004000098131AC0E889F989808185FF15C09FB7C4
:10041000F894EE89FF896083E889F9898081837087
:10042000806480839FBF81E090E0DF91CF911F9136
:100430000F91FF90EF900895F62E0B8D10E00F5F57
:100440001F4F0F731127E02E8C8D8E110CC00FB62D
:1004500007FCFACFE889F989808185FFF5CFCE01C5
:100460000E94D301F1CFEB8DEC0FFD2FF11DE35A6C
:10047000FF4FF0829FB7F8940B8FEA89FB89808148
:100480008062CFCFCF93DF93EC01888D8823B9F0C2
:10049000AA89BB89E889F9898C9185FD03C080818F
:1004A00086FD0DC00FB607FCF7CF8C9185FFF2CF0C
:1004B000808185FFEDCFCE010E94D301E9CFDF918E
:1004C000CF91089581E891E00E94C70121E0892B36
:1004D00009F420E0822F089580E090E0892B29F034
:1004E0000E94620281110C940000089590E0FC01CA
:1004F000E85BFD4F2491FC01EC57FD4F3491FC016A
:10050000E059FD4FE491EE23C9F0222339F0233066
:1005100001F1A8F4213019F1223029F1F0E0EE0FB9
:10052000FF1FE45AFD4FA591B4918FB7F894EC9159
:10053000611126C030953E233C938FBF089527302C
:10054000A9F02830C9F0243049F7809180008F7DD0
:1005500003C0809180008F7780938000DFCF84B5C7
:100560008F7784BDDBCF84B58F7DFBCF8091B000CA
:100570008F778093B000D2CF8091B0008F7DF9CF7C
:100580003E2BDACF8E3008F08E50877080648093D7
:100590007C0080917A00806480937A0080917A0058
:1005A00086FDFCCF809178009091790008953FB747
:1005B000F89480917D0190917E01A0917F01B0918E
:1005C000800126B5A89B05C02F3F19F00196A11DFB
:1005D000B11D3FBFBA2FA92F982F8827BC01CD018D
:1005E000620F711D811D911D42E0660F771F881FEC
:1005F000991F4A95D1F708958F929F92AF92BF921B
:10060000CF92DF92EF92FF920E94D7024B015C01E2
:1006100084E6C82ED12CE12CF12C0E94D702681957
:1006200079098A099B09683E734081059105A8F301
:1006300021E0C21AD108E108F10888EE880E83E0B3
:10064000981EA11CB11CC114D104E104F10429F7C6
:10065000FF90EF90DF90CF90BF90AF909F908F90E2
:100660000895AF92BF92CF92DF92EF92FF920F93D5
:100670001F93CF93DF936C017B018B01040F151F38
:10068000EB015E01AE18BF08C017D10759F06991A0
:10069000D601ED91FC910190F081E02DC601099504
:1006A000892B79F7C501DF91CF911F910F91FF90B1
:1006B000EF90DF90CF90BF90AF900895089590E0B5
:1006C00080E00895FB0101900020E9F73197AF0128
:1006D000461B570BDC01ED91FC910280F381E02D6C
:1006E00009948F929F92AF92BF92EF92FF920F93D5
:1006F0001F93CF93DF93CDB7DEB7A1970FB6F894D2
:10070000DEBF0FBECDBF7C01FA01CB0119A22230A2
:1007100008F42AE08E010F5D1F4F822E912CB12C20
:10072000A12CBF01A50194010E94CC0AF901CA01C4
:100730006A300CF5605DD8016E938D01232B242B5C
:10074000252B79F790E080E0109721F0BD01C701DB
:100750000E946203A1960FB6F894DEBF0FBECDBF14
:10076000DF91CF911F910F91FF90EF90BF90AF90CD
:100770009F908F900895695CDECF2F923F924F92A9
:100780005F926F927F928F929F92AF92BF92CF9221
:10079000DF92EF92FF921F93CF93DF93EC016A01F8
:1007A0007B01722EAB019601CB01B6010E94B30A08
:1007B0006EE171E0811126C046015701E894B7F857
:1007C0002FEF3FEF4FE75FE7C501B4010E94B30A87
:1007D00081110CC02FEF3FEF4FE75FE7C501B40178
:1007E0000E94E90862E271E0181664F02FEF3FEF13
:1007F0004FE75FE4C701B6010E94410A1816B4F43E
:1008000066E271E0CE01DF91CF911F91FF90EF90F2
:10081000DF90CF90BF90AF909F908F907F906F9020
:100820005F904F903F902F900C9462032FEF3FEF1B
:100830004FE75FECC701B6010E94E90887FDE0CFF2
:1008400020E030E0A901C701B6010E94E908312C7F
:10085000212C87FF0DC0E881F9810190F081E02D06
:100860006DE2CE0109951C01F7FAF094F7F8F094C7
:1008700010E060E070E080E09FE3711641F020E05E
:1008800030E040E251E40E94EE081F5FF6CFA7017E
:1008900096010E947D082B013C010E9460094B01DA
:1008A0005C012AE0BC01A401CE010E9471037C011D
:1008B000E20CF31C1123E1F1C501B4010E948F0980
:1008C0009B01AC01C301B2010E947C084B015C0199
:1008D000E881F9810190F081E02D6EE2CE01099569
:1008E000E80EF91E115020F120E030E040E251E422
:1008F000C501B4010E94460A2B013C010E94600917
:100900004B01B12CA12C2AE0B501A401CE010E941B
:100910007103E80EF91EC501B4010E948F099B0105
:10092000AC01C301B2010E947C084B015C01DACF2B
:10093000C701DF91CF911F91FF90EF90DF90CF9093
:10094000BF90AF909F908F907F906F905F904F90EF
:100950003F902F900895EF92FF920F931F93CF93A4
:10096000DF93EC01042F8E810E94760260E088857F
:100970000E947602FC80ED8018E0602F661F6627DB
:10098000661F8E2D0E947602000F61E08F2D0E945F
:10099000760260E08F2D0E947602115071F761E0BF
:1009A0008885DF91CF911F910F91FF90EF900C946C
:1009B0007602CF93DF93CEE1D2E01C8690E06B8588
:1009C00029E3629F612D1124669570E06F5F7F4F70
:1009D0000E94B80A8D8740E860E0CE010E94AB0417
:1009E0004D85406460E0CE01DF91CF910C94AB0463
:1009F000CF92DF92EF92FF920F931F93CF93DF93EB
:100A000000D000D01F92CDB7DEB767FD6BC07C0170
:100A1000862F90E0603208F455C0809725E0289F2B
:100A2000B001299F700D112468597F4F45E050E0B7
:100A3000CE0101960E9473088E010F5F1F4F68015F
:100A400085E0C80ED11CF80141918F01F701868520
:100A50008111409561E0C7010E94AB040C151D0592
:100A600091F7F7014685419561E0C7010E94AB040B
:100A7000F701848590E00696628570E00E94B80ACE
:100A80008487892B79F4858590E00196638529E335
:100A9000629F612D1124669570E06F5F7F4F0E9409
:100AA000B80A858781E090E00F900F900F900F902B
:100AB0000F90DF91CF911F910F91FF90EF90DF90FA
:100AC000CF900895880F991FF701E80FF91F078548
:100AD00010890115110509F0B2CF45E050E068E634
:100AE00070E0A6CF90E080E0DFCF1F920F920FB6AC
:100AF0000F9211242F933F938F939F93AF93BF93A4
:100B00008091790190917A01A0917B01B0917C0153
:100B10003091780123E0230F2D3758F50196A11D60
:100B2000B11D209378018093790190937A01A0936D
:100B30007B01B0937C0180917D0190917E01A09119
:100B40007F01B09180010196A11DB11D80937D01AF
:100B500090937E01A0937F01B0938001BF91AF91EC
:100B60009F918F913F912F910F900FBE0F901F90EB
:100B7000189526E8230F0296A11DB11DD2CF1F9212
:100B80000F920FB60F9211242F933F934F935F93C1
:100B90006F937F938F939F93AF93BF93EF93FF9345
:100BA00081E891E00E94D301FF91EF91BF91AF9155
:100BB0009F918F917F916F915F914F913F912F9175
:100BC0000F900FBE0F901F9018951F920F920FB6A7
:100BD0000F9211242F938F939F93EF93FF93E091A4
:100BE0009101F09192018081E0919701F09198013B
:100BF00082FD1BC0908180919A018F5F8F7320913D
:100C00009B01821741F0E0919A01F0E0EF57FE4F0F
:100C1000958F80939A01FF91EF919F918F912F91E2
:100C20000F900FBE0F901F9018958081F4CFE1E8D0
:100C3000F1E01382128288EE93E0A0E0B0E08483BA
:100C40009583A683B78384E091E09183808385ECCC
:100C500090E09587848784EC90E09787868780EC86
:100C600090E0918B808B81EC90E0938B828B82EC77
:100C700090E0958B848B86EC90E0978B868B118E21
:100C8000128E138E148EEEE1F2E01382128286E150
:100C900091E09183808383E0848384E0858385E091
:100CA000868386E0878387E0808716860895789418
:100CB00084B5826084BD84B5816084BD85B5826061
:100CC00085BD85B5816085BD80916E008160809312
:100CD0006E0010928100809181008260809381007B
:100CE000809181008160809381008091800081608B
:100CF000809380008091B10084608093B1008091E6
:100D0000B00081608093B00080917A00846080930D
:100D10007A0080917A00826080937A0080917A00D4
:100D2000816080937A0080917A00806880937A0055
:100D30001092C10084E58093280280E38093290209
:100D40001092270210922A0210922B02EDE2F2E09A
:100D500080E4DF011D928A95E9F7809122020E94CA
:100D60007701809123020E947701809124020E94E2
:100D70007701809125020E947701809126020E94CE
:100D8000770161E0809125020E94760261E0809106
:100D900026020E94760260E0809125020E9476027F
:100DA0000E94FC0261E0809125020E94760241E2ED
:100DB00060E08EE192E00E94AB0443E160E08EE1EE
:100DC00092E00E94AB048091270242EC813039F41A
:100DD00040EE60E08EE192E00E94AB0445E060E00E
:100DE0008EE192E00E94AB0440E260E08EE192E08E
:100DF0000E94AB0449E060E08EE192E00E94AB0407
:100E000080E00E94D904D0E0C0E08091290286955C
:100E10008695869590912802899FC0011124C81754
:100E2000D90740F440E061E08EE192E00E94AB041B
:100E30002196EBCF80E00E94D90448E060E08EE18B
:100E400092E00E94AB044CE060E08EE192E00E94F0
:100E5000AB040E94FC0240E860E08EE192E00E9458
:100E6000AB0440E460E08EE192E00E94AB0488E0D5
:100E70000E9477018CE00E9477018DE00E9477014B
:100E8000812C912C88ECA82E82E4B82E00E010E092
:100E900084E00E94C202EC01909377018093760176
:100EA00085E00E94C202909375018093740180E0F6
:100EB0000E94C202BC01990F880B990B0E949109F4
:100EC00020E030E84FE754E40E94EE0820E030E0F4
:100ED00040E752E40E94460A20E030E040EA51E454
:100EE0000E947D086B017C01C0927001D09271015B
:100EF000E0927201F0927301BE01DD0F880B990B35
:100F00000E9491092B013C0140926C0150926D01AD
:100F100060926E0170926F018092680190926901F7
:100F2000A0926A01B0926B0120E030E040EF51E402
:100F3000C701B6010E94E90861E087FD96C020E084
:100F400030E040EF51E4C701B6010E94410A87FD3D
:100F500014C020E030E048E252E4C701B6010E942C
:100F6000E908181654F060E088E00E94760261E01B
:100F70008CE00E94760260E014C020E030E048E29D
:100F800052E4C701B6010E94410A60E018160CF055
:100F90006CC088E00E94760260E08CE00E947602DD
:100FA00061E08DE00E94760220E030E0A901C301FB
:100FB000B2010E94E90881115DC044E260E08EE167
:100FC00092E00E94AB0480917401909175010197A9
:100FD00009F03FC063E371E081E891E00E946203A1
:100FE0004091700150917101609172017091730193
:100FF00022E081E891E00E94BD036EE371E081E8A8
:1010000091E00E94620340916C0150916D016091EA
:101010006E0170916F0122E081E891E00E94BD03B2
:1010200065E571E081E891E00E946203409168010A
:101030005091690160916A0170916B0122E081E831
:1010400091E00E94BD0364E671E081E891E00E94B6
:1010500062030115110509F41BCF0E946202882367
:1010600009F416CF0E94000013CF88E00E94760298
:1010700060E07ECF40E260E08EE192E00E94AB044F
:1010800080E00E94D9046AE271E08EE192E00E9461
:10109000620322E0B701A6018EE192E00E94BD0347
:1010A00081E00E94D9046FE271E08EE192E00E943B
:1010B000620322E0B301A2018EE192E00E94BD032F
:1010C00082E00E94D9046EE571E08EE192E00E9418
:1010D000620322E040E050E068EC72E48EE192E0CE
:1010E0000E94BD0370CFFB01DC0102C005900D9290
:1010F00041505040D8F708955058BB27AA270E9466
:1011000094080C94070A0E94F90938F00E94000A1A
:1011100020F039F49F3F19F426F40C94F6090EF4EC
:10112000E095E7FB0C94F009E92F0E94180A58F3A8
:10113000BA17620773078407950720F079F4A6F5BC
:101140000C943A0A0EF4E0950B2EBA2FA02D0B0149
:10115000B90190010C01CA01A0011124FF27591BFC
:1011600099F0593F50F4503E68F11A16F040A22F02
:10117000232F342F4427585FF3CF46953795279573
:10118000A795F0405395C9F77EF41F16BA0B620B72
:10119000730B840BBAF09150A1F0FF0FBB1F661FB9
:1011A000771F881FC2F70EC0BA0F621F731F841FFC
:1011B00048F4879577956795B795F7959E3F08F022
:1011C000B0CF9395880F08F09927EE0F97958795E4
:1011D00008950E94CC0908F481E008950E94020954
:1011E0000C94070A0E94000A58F00E94F90940F086
:1011F00029F45F3F29F00C94F00951110C943B0A3B
:101200000C94F6090E94180A68F39923B1F3552348
:1012100091F3951B550BBB27AA2762177307840709
:1012200038F09F5F5F4F220F331F441FAA1FA9F39F
:1012300035D00E2E3AF0E0E832D091505040E6958D
:10124000001CCAF72BD0FE2F29D0660F771F881FEE
:10125000BB1F261737074807AB07B0E809F0BB0BE1
:10126000802DBF01FF2793585F4F3AF09E3F5105F5
:1012700078F00C94F0090C943B0A5F3FE4F3983E3D
:10128000D4F3869577956795B795F7959F5FC9F7DE
:10129000880F911D9695879597F90895E1E0660F5F
:1012A000771F881FBB1F621773078407BA0720F0D8
:1012B000621B730B840BBA0BEE1F88F7E095089541
:1012C0000E94200A88F09F5798F0B92F9927B751AC
:1012D000B0F0E1F0660F771F881F991F1AF0BA95DA
:1012E000C9F714C0B13091F00E943A0AB1E00895F4
:1012F0000C943A0A672F782F8827B85F39F0B93FE6
:10130000CCF3869577956795B395D9F73EF490958C
:101310008095709561957F4F8F4F9F4F0895E8940A
:1013200009C097FB3EF490958095709561957F4F2D
:101330008F4F9F4F9923A9F0F92F96E9BB279395DB
:10134000F695879577956795B795F111F8CFFAF4EB
:10135000BB0F11F460FF1BC06F5F7F4F8F4F9F4F1C
:1013600016C0882311F096E911C0772321F09EE87A
:10137000872F762F05C0662371F096E8862F70E0E0
:1013800060E02AF09A95660F771F881FDAF7880FBA
:101390009695879597F90895990F0008550FAA0B10
:1013A000E0E8FEEF16161706E807F907C0F0121678
:1013B0001306E407F50798F0621B730B840B950B7B
:1013C00039F40A2661F0232B242B252B21F40895D0
:1013D0000A2609F4A140A6958FEF811D811D08956D
:1013E00097F99F6780E870E060E008959FEF80ECD8
:1013F000089500240A94161617061806090608957B
:1014000000240A9412161306140605060895092EE0
:101410000394000C11F4882352F0BB0F40F4BF2B4F
:1014200011F460FF04C06F5F7F4F8F4F9F4F08958F
:1014300057FD9058440F551F59F05F3F71F0479585
:10144000880F97FB991F61F09F3F79F0879508956A
:10145000121613061406551FF2CF4695F1DF08C089
:10146000161617061806991FF1CF869571056105A6
:1014700008940895E894BB2766277727CB0197F94E
:1014800008950E94CC0908F48FEF08950E94590A2C
:101490000C94070A0E94F90938F00E94000A20F013
:1014A000952311F00C94F0090C94F60911240C9476
:1014B0003B0A0E94180A70F3959FC1F3950F50E004
:1014C000551F629FF001729FBB27F00DB11D639FF6
:1014D000AA27F00DB11DAA1F649F6627B00DA11D9C
:1014E000661F829F2227B00DA11D621F739FB00D42
:1014F000A11D621F839FA00D611D221F749F3327B2
:10150000A00D611D231F849F600D211D822F762F4A
:101510006A2F11249F5750409AF0F1F088234AF027
:10152000EE0FFF1FBB1F661F771F881F9150504093
:10153000A9F79E3F510580F00C94F0090C943B0AEA
:101540005F3FE4F3983ED4F3869577956795B7951A
:10155000F795E7959F5FC1F7FE2B880F911D969534
:10156000879597F908950E94CC09880B990B0895E7
:1015700097FB072E16F4009407D077FD09D00E9440
:10158000EE0A07FC05D03EF4909581959F4F089593
:10159000709561957F4F0895A1E21A2EAA1BBB1B7F
:1015A000FD010DC0AA1FBB1FEE1FFF1FA217B3072F
:1015B000E407F50720F0A21BB30BE40BF50B661F45
:1015C000771F881F991F1A9469F760957095809509
:1015D00090959B01AC01BD01CF010895AA1BBB1BD7
:1015E00051E107C0AA1FBB1FA617B70710F0A61B23
:1015F000B70B881F991F5A95A9F780959095BC0144
:10160000CD010895EE0FFF1F0590F491E02D099490
:04161000F894FFCF7C
:1016140000000000F501310396014202C701A50153
:10162400B90100000000F80431035F035E036E613A
:101634006E00696E66006F76660053503A2000545F
:101644003A2000536574706F696E743A20002C2040
:1016540054656D706572617475726120416374754F
:10166400616C3A20002C2053616C696461205049FC
:08167400443A20000D0A0000B9
:00000001FF
